:100000000C9462000C948A000C948A000C948A0070
:100010000C948A000C948A000C948A000C948A0038
:100020000C948A000C948A000C948A000C948A0028
:100030000C948A000C948A000C948A000C948A0018
:100040000C9427030C948A000C94F5020C94CF02B4
:100050000C948A000C948A000C948A000C948A00F8
:100060000C948A000C948A000000000024002700F1
:100070002A000000000023002600290000000000E4
:10008000250028002B0004040404040404040202D4
:100090000202020203030303030301020408102007
:1000A0004080010204081020010204081020000012
:1000B0000008000201000003040700000000000027
:1000C0000000710411241FBECFEFD8E0DEBFCDBF0A
:1000D00011E0A0E0B1E0ECEFFEE002C005900D926F
:1000E000AE31B107D9F721E0AEE1B1E001C01D9218
:1000F000AC3CB207E1F710E0C2E6D0E004C02197C3
:10010000FE010E949E04C136D107C9F70E94710307
:100110000C947C070C940000AF92BF92CF92DF92B8
:10012000EF92FF920F931F93CF93DF936C017B01AC
:100130008B01040F151FEB015E01AE18BF08C0173D
:10014000D10759F06991D601ED91FC910190F081B0
:10015000E02DC6010995892B79F7C501DF91CF9173
:100160001F910F91FF90EF90DF90CF90BF90AF90D5
:100170000895FC01538D448D252F30E0842F90E0AD
:10018000821B930B541710F0CF9608950197089592
:10019000FC01918D828D981761F0A28DAE0FBF2F5B
:1001A000B11D5D968C91928D9F5F9F73928F90E0B1
:1001B00008958FEF9FEF0895FC01918D828D981720
:1001C00031F0828DE80FF11D858D90E008958FEF5D
:1001D0009FEF0895FC01918D228D892F90E0805C26
:1001E0009F4F821B91098F73992708958FE291E0A9
:1001F0000E94EA0021E0892B09F420E0822F089573
:1002000080E090E0892B29F00E94F60081110C9487
:1002100000000895FC01A48DA80FB92FB11DA35AA9
:10022000BF4F2C91848D90E001968F739927848F16
:10023000A689B7892C93A089B1898C918370806439
:100240008C93938D848D981306C00288F389E02DDA
:1002500080818F7D80830895EF92FF920F931F938B
:10026000CF93DF93EC0181E0888F9B8D8C8D981369
:100270001AC0E889F989808185FF15C09FB7F89475
:10028000EE89FF896083E889F989808183708064C1
:1002900080839FBF81E090E0DF91CF911F910F910C
:1002A000FF90EF900895F62E0B8D10E00F5F1F4F1B
:1002B0000F731127E02E8C8D8E110CC00FB607FC2A
:1002C000FACFE889F989808185FFF5CFCE010E94B8
:1002D0000A01F1CFEB8DEC0FFD2FF11DE35AFF4F1B
:1002E000F0829FB7F8940B8FEA89FB898081806246
:1002F000CFCFCF93DF93EC01888D8823B9F0AA8903
:10030000BB89E889F9898C9185FD03C0808186FDD0
:100310000DC00FB607FCF7CF8C9185FFF2CF80811F
:1003200085FFEDCFCE010E940A01E9CFDF91CF9189
:100330000895833081F028F4813099F08230A9F05B
:1003400008958730A9F08830C9F08430B1F48091E5
:1003500080008F7D03C0809180008F778093800024
:10036000089584B58F7784BD089584B58F7DFBCFC4
:100370008091B0008F778093B00008958091B00095
:100380008F7DF9CFCF93DF93282F30E0F901E2552D
:10039000FF4F8491F901E656FF4FD491F901EA57D6
:1003A000FF4FC491CC2389F081110E949901EC2F59
:1003B000F0E0EE0FFF1FE458FF4FA591B4918FB707
:1003C000F894EC91DE2BDC938FBFDF91CF910895F1
:1003D000CF93DF93282F30E0F901E255FF4F84914E
:1003E000F901E656FF4FD491F901EA57FF4FC49146
:1003F000CC23A1F081110E949901EC2FF0E0EE0FC7
:10040000FF1FEE58FF4FA591B491EC91ED2381E0D1
:1004100090E009F480E0DF91CF91089580E090E0D2
:10042000FACFCF93DF9390E0FC01E656FF4F249183
:100430008A579F4FFC0184918823D1F090E0880F68
:10044000991FFC01E859FF4FA591B491FC01E458B4
:10045000FF4FC591D491623071F49FB7F8943C91ED
:10046000822F809583238C93E8812E2B28839FBF36
:10047000DF91CF9108958FB7F894EC912E2B2C93A8
:100480008FBFF6CF8E3008F08E50877080648093D7
:100490007C0080917A00806480937A0080917A0059
:1004A00086FDFCCF809178009091790008953FB748
:1004B000F8948091230190912401A0912501B0919D
:1004C000260126B5A89B05C02F3F19F00196A11D56
:1004D000B11D3FBFBA2FA92F982F8827BC01CD018E
:1004E000620F711D811D911D42E0660F771F881FED
:1004F000991F4A95D1F708958F929F92AF92BF921C
:10050000CF92DF92EF92FF920E9457024B015C0163
:1005100084EFC82EDD24D394E12CF12C0E945702E5
:10052000681979098A099B09683E7340810591051C
:10053000A8F321E0C21AD108E108F10888EE880E7C
:1005400083E0981EA11CB11CC114D104E104F10484
:1005500029F7FF90EF90DF90CF90BF90AF909F90E2
:100560008F900895CF93DF93FC0101900020E9F76D
:100570003197AF01481B590BBC018FE291E00E94FB
:100580008C00EC0142E050E062E171E08FE291E02A
:100590000E948C008C0F9D1FDF91CF9108951F92B8
:1005A0000F920FB60F9211242F933F934F935F93A7
:1005B0006F937F938F939F93AF93BF93EF93FF932B
:1005C0008FE291E00E940A01FF91EF91BF91AF91FC
:1005D0009F918F917F916F915F914F913F912F915B
:1005E0000F900FBE0F901F9018951F920F920FB68D
:1005F0000F9211242F938F939F93EF93FF93E0918A
:100600003F01F09140018081E0914501F091460168
:1006100082FD1BC09081809148018F5F8F73209174
:100620004901821741F0E0914801F0E0E15DFE4FA1
:10063000958F80934801FF91EF919F918F912F911A
:100640000F900FBE0F901F9018958081F4CF1F92CE
:100650000F920FB60F9211242F933F938F939F9376
:10066000AF93BF9380911F0190912001A091210130
:10067000B091220130911E0123E0230F2D3758F550
:100680000196A11DB11D20931E0180931F0190931F
:100690002001A0932101B093220180912301909128
:1006A0002401A0912501B09126010196A11DB11D43
:1006B0008093230190932401A0932501B0932601F8
:1006C000BF91AF919F918F913F912F910F900FBE4E
:1006D0000F901F90189526E8230F0296A11DB11DBB
:1006E000D2CFCF93DF93CDB7DEB76E970FB6F89426
:1006F000DEBF0FBECDBF789484B5826084BD84B563
:10070000816084BD85B5826085BD85B5816085BD0C
:1007100080916E00816080936E00109281008091C4
:10072000810082608093810080918100816080934C
:100730008100809180008160809380008091B10071
:1007400084608093B1008091B00081608093B0009C
:1007500080917A00846080937A0080917A00826030
:1007600080937A0080917A00816080937A008091F2
:100770007A00806880937A001092C10061E08DE079
:100780000E94110262E082E00E94110262E083E0B6
:100790000E941102E0913F01F091400182E08083CC
:1007A000E0913B01F0913C011082E0913D01F0911C
:1007B0003E018FEC808310924701E0914301F0915C
:1007C000440186E08083E0914101F0914201808103
:1007D00080618083E0914101F091420180818860D5
:1007E0008083E0914101F0914201808180688083A3
:1007F000E0914101F091420180818F7D808385E10C
:10080000E82E81E0F82E8E010F5F1F4F99E1C92E6F
:1008100091E0D92E20E0822E20E0922E82E00E94EC
:10082000E8013C0190932E0180932D0183E00E940A
:10083000E80190932C0180932B018EE00E944202EC
:10084000B82EA92E8093290190932A018FE00E944F
:10085000420290932801809327016728B1F48DE02C
:100860000E94C201AF92BF92FF92EF921F930F932B
:100870000E94A404C8010E94B2020E947C020F9050
:100880000F900F900F900F900F9080912B019091EF
:100890002C01892BD1F48DE00E94C20180912801A6
:1008A0008F93809127018F93DF92CF921F930F93A5
:1008B0000E94A404C8010E94B2020E947C020F9010
:1008C0000F900F900F900F900F908114910409F4E6
:1008D000A5CF0E94F600882309F4A0CF0E94000053
:1008E0009DCFEFE2F1E01382128288EE93E0A0E068
:1008F000B0E084839583A683B78384E091E09183FD
:10090000808385EC90E09587848784EC90E09787DE
:10091000868780EC90E0918B808B81EC90E0938BCC
:10092000828B82EC90E0958B848B86EC90E0978BA9
:10093000868B118E128E138E148E0895EE0FFF1F6C
:100940000590F491E02D0994AEE0B0E0EAEAF4E01D
:100950000C9453070D891E8986E08C831A830983C2
:100960008FEF9FE79E838D83AE01475E5F4F6F8958
:10097000788DCE0101960E94C7042F813885020F21
:10098000131FF80110822E96E4E00C946F07ABE081
:10099000B0E0EDECF4E00C9445077C013B018A01EA
:1009A000FC0117821682838181FFC8C1CE010196A6
:1009B0005C01F7019381F30193FD859193FF819190
:1009C0003F01882309F453C1853239F493FD8591A1
:1009D00093FF81913F01853229F4B70190E00E9495
:1009E000B706E7CF912C212C312CFFE1F31538F01D
:1009F0008B3211F190F4803209F1833229F137FC06
:100A00003CC020ED280F2A3050F536FE20C08AE089
:100A1000989E200D1124922E06C08D3291F08033C5
:100A200071F7689430F8F30193FD859193FF8191FC
:100A30003F018111DACF21C0689431F8689432F80F
:100A4000F2CF689433F8EFCF689434F8ECCFEAE053
:100A50002E9E200D1124222E689435F8E4CF8E327C
:100A600029F436FC04C1689436F8DDCF8C3619F4CD
:100A7000689437F8D8CF8836B1F2982F9F7D955477
:100A80009330E0F08336A1F18337C1F1833509F06B
:100A900063C02801F2E04F0E511CF801C080D180E4
:100AA000692D70E036FC02C06FEF7FEFC6010E9437
:100AB000A1064C01689437F882010AC00C5F1F4FF1
:100AC000FFE3F98388248394912C6501E89437F837
:100AD00033FE2DC0522C8114910471F5552009F478
:100AE00068CFB70180E290E00E94B7065A94F6CF33
:100AF000F801808189830E5F1F4FE4CF2801F2E067
:100B00004F0E511CF801C080D180692D70E036FC79
:100B100002C06FEF7FEFC6010E94AC064C0182015C
:100B2000D5CFB70180E290E00E94B7062A9428143E
:100B3000190409F0B0F7CECFF60137FC859137FEE6
:100B400081916F01B70190E00E94B70651105A944D
:100B5000F1E08F1A9108BFCF843619F0893609F079
:100B600077C0F80137FE6BC060817181828193810B
:100B70000C5F1F4FF32DFF763F2E97FF09C0909516
:100B80008095709561957F4F8F4F9F4F689437F890
:100B90002AE030E0A5010E94E706C82ECA188C2C76
:100BA000432C36FE0CC0E89440F8C91440F434FEDF
:100BB00005C032FC03C0F32DFE7E4F2E892C44FE6F
:100BC00095C0FE01EC0DF11D8081803309F087C0D6
:100BD000242D297E422E842D8870582E43FC95C0EA
:100BE00040FE8FC09C2C821418F42C0C922C981868
:100BF00044FE91C0B70180E390E00E94B70642FE38
:100C000009C088E790E041FE02C088E590E0B701A6
:100C10000E94B706C91408F48AC0CA94D12C9FEF69
:100C2000C91AD90ACA0CDB1CF60182916F01B701FF
:100C300090E00E94B706AC14BD04B1F74FCF6081BD
:100C40007181072E000C880B990B0E5F1F4F92CFFE
:100C5000D32CE894D4F82AE030E0853739F1232DFD
:100C6000297FD22E8F3601F148F48835A9F0F7019B
:100C7000868197812B96E2E10C946107803749F0D9
:100C80008837A9F7D4FE02C06894D2F820E130E09A
:100C90000DC06894D4F8F6CF34FE03C0822F86606E
:100CA000D82E20E132E002C028E030E0F801D7FE83
:100CB0000FC060817181828193810C5F1F4FA501FC
:100CC0000E94E706C82ECA183D2CE89437F867CF73
:100CD0006081718190E080E00E5F1F4FF0CF42FC99
:100CE00002C0839478CF8394839475CF842D8678C3
:100CF00009F471CFF6CFB70180E290E00E94B70609
:100D000083948214C0F3512C73CF522C5818821440
:100D100008F46ECFF8CF842D867809F47BCF8BE270
:100D200041FE80E247FC8DE2B70190E071CFB70150
:100D300080E390E00E94B7069A946CCF8FEF9FEF0C
:100D400099CFFC010590615070400110D8F7809553
:100D500090958E0F9F1F0895FC0161507040019087
:100D60000110D8F7809590958E0F9F1F08950F93CF
:100D70001F93CF93DF93182F092FEB018B8181FDF8
:100D800009C01FEF0FEF812F902FDF91CF911F919F
:100D90000F91089582FF14C02E813F818C819D8127
:100DA000281739073CF4E881F981CF01019699832E
:100DB000888310838E819F8101969F838E83E3CFEA
:100DC000E885F985812F0995892BA1F3DACFFA01FE
:100DD000AA27283051F1203181F1E8946F936E7F7A
:100DE0006E5F7F4F8F4F9F4FAF4FB1E03ED0B4E06B
:100DF0003CD0670F781F891F9A1FA11D680F791FAC
:100E00008A1F911DA11D6A0F711D811D911DA11DBC
:100E100020D009F468943F912AE0269F11243019CC
:100E2000305D3193DEF6CF010895462F4770405D67
:100E30004193B3E00FD0C9F7F6CF462F4F70405D16
:100E40004A3318F0495D31FD4052419302D0A9F771
:100E5000EACFB4E0A6959795879577956795BA956B
:100E6000C9F700976105710508959B01AC010A2E31
:100E700006945795479537952795BA95C9F7620F08
:100E8000731F841F951FA01D08952F923F924F92AC
:100E90005F926F927F928F929F92AF92BF92CF920A
:100EA000DF92EF92FF920F931F93CF93DF93CDB713
:100EB000DEB7CA1BDB0B0FB6F894DEBF0FBECDBF8B
:100EC00009942A88398848885F846E847D848C845C
:100ED0009B84AA84B984C884DF80EE80FD800C8165
:100EE0001B81AA81B981CE0FD11D0FB6F894DEBF48
:0C0EF0000FBECDBFED010895F894FFCFB8
:100EFC00000000002C018C00B9007901EA00C80048
:0E0F0C00DC000D0A004125640042256400004F
:00000001FF
