:020000040000FA
:100000000C945E000C9486000C9486000C94860080
:100010000C9486000C9486000C9486000C94860048
:100020000C9486000C9486000C9486000C94860038
:100030000C9486000C9486000C9486000C94860028
:100040000C94C5050C9486000C9493050C946D05D6
:100050000C9486000C9486000C9486000C94860008
:100060000C9486000C948600000000080002010039
:100070000003040700000000000000000000000072
:10008000250028002B0000000000240027002A0083
:10009000040404040404040402020202020203032E
:1000A0000303030301020408102040800102040836
:1000B00010200102040810200F06F50711241FBEAE
:1000C000CFEFD8E0DEBFCDBF12E0A0E0B1E0ECE0C2
:1000D000F7E102C005900D92A435B107D9F723E0EE
:1000E000A4E5B2E001C01D92AD30B207E1F710E027
:1000F000CDE5D0E004C02197FE010E947009CC3507
:10010000D107C9F70E9447060C94790B0C940000A4
:100110000895AF92BF92CF92DF92EF92FF920F932A
:100120001F93CF93DF936C017B018B01040F151F8D
:10013000EB015E01AE18BF08C017D10759F06991F5
:10014000D601ED91FC910190F081E02DC601099559
:10015000892B79F7C501DF91CF911F910F91FF9006
:10016000EF90DF90CF90BF90AF900895FC01538D3A
:10017000448D252F30E0842F90E0821B930B541781
:1001800010F0CF96089501970895FC01918D828D0E
:10019000981761F0A28DAE0FBF2FB11D5D968C91A7
:1001A000928D9F5F9F73928F90E008958FEF9FEFE6
:1001B00008952FB7F89480915C0290915D02A09110
:1001C0005E02B0915F022FBF809368029093690234
:1001D000A0936A02B0936B0280E692E00E94C50091
:1001E00097FF26C02FB7F89480915C0290915D0232
:1001F000A0915E02B0915F022FBF409168025091C2
:10020000690260916A0270916B02841B950BA60BC8
:10021000B70B409164025091650260916602709143
:10022000670284179507A607B707B0F28FEF9FEF15
:100230000895FC01918D828D981731F0828DE80F21
:10024000F11D858D90E008958FEF9FEF0895FC01DB
:10025000918D228D892F90E0805C9F4F821B9109A8
:100260008F739927089580E692E00E94270121E08C
:10027000892B09F420E0822F089580E090E0892BFB
:1002800029F00E94330181110C9400000895FC01B3
:10029000A48DA80FB92FB11DA35ABF4F2C91848DE7
:1002A00090E001968F739927848FA689B7892C9344
:1002B000A089B1898C91837080648C93938D848D97
:1002C000981306C00288F389E02D80818F7D80839A
:1002D0000895EF92FF920F931F93CF93DF93EC015A
:1002E00081E0888F9B8D8C8D98131AC0E889F989DD
:1002F000808185FF15C09FB7F894EE89FF896083E0
:10030000E889F98980818370806480839FBF81E060
:1003100090E0DF91CF911F910F91FF90EF900895A2
:10032000F62E0B8D10E00F5F1F4F0F731127E02E7D
:100330008C8D8E110CC00FB607FCFACFE889F989B5
:10034000808185FFF5CFCE010E944701F1CFEB8D73
:10035000EC0FFD2FF11DE35AFF4FF0829FB7F89489
:100360000B8FEA89FB8980818062CFCFCF93DF93A7
:10037000EC01888D8823B9F0AA89BB89E889F989BD
:100380008C9185FD03C0808186FD0DC00FB607FCF2
:10039000F7CF8C9185FFF2CF808185FFEDCFCE0125
:1003A0000E944701E9CFDF91CF91089590E0FC01D1
:1003B000E859FF4F2491FC01EC55FF4F3491FC01AB
:1003C000E057FF4FE491EE23C9F0222339F02330A8
:1003D00001F1A8F4213019F1223029F1F0E0EE0FFB
:1003E000FF1FE458FF4FA591B4918FB7F894EC919B
:1003F000611126C030953E233C938FBF089527306E
:10040000A9F02830C9F0243049F7809180008F7D11
:1004100003C0809180008F7780938000DFCF84B508
:100420008F7784BDDBCF84B58F7DFBCF8091B0000B
:100430008F778093B000D2CF8091B0008F7DF9CFBD
:100440003E2BDACF3FB7F894809155029091560237
:10045000A0915702B091580226B5A89B05C02F3F26
:1004600019F00196A11DB11D3FBFBA2FA92F982FDA
:100470008827BC01CD01620F711D811D911D42E0D5
:10048000660F771F881F991F4A95D1F708958F929D
:100490009F92AF92BF92CF92DF92EF92FF926B0149
:1004A0007C010E9422024B015C01C114D104E104D1
:1004B000F104B9F00E942202681979098A099B099E
:1004C000683E73408105910580F321E0C21AD1088E
:1004D000E108F10888EE880E83E0981EA11CB11C8B
:1004E000E4CFFF90EF90DF90CF90BF90AF909F90C0
:1004F0008F900895BF92CF92DF92EF92FF920F9369
:100500001F93CF93DF938B01D0E0C0E06C01990F74
:10051000EE08FF0896E0B92E61E08B2D0E94D6010F
:10052000B3948CE0B812F8CFC701B6010E9447021D
:1005300086E0B82E60E08B2D0E94D601B3948CE04B
:10054000B812F8CFC701B6010E94470221960C17D6
:100550001D0701F7DF91CF911F910F91FF90EF9051
:10056000DF90CF90BF900895CF93DF93FC0101906F
:100570000020E9F73197AF01481B590BBC0180E619
:1005800092E00E948900EC0142E050E06CE171E0F1
:1005900080E692E00E9489008C0F9D1FDF91CF9131
:1005A0000895CF93DF93EC0188819981009711F032
:1005B0000E94120A198218821D821C821B821A82D2
:1005C000DF91CF910895FC0180819181009711F016
:1005D0000C94120A0895EF92FF920F931F93CF93FA
:1005E000DF930091030310910403FC01C081D181CA
:1005F000F80181918F018823B9F0082E000C990B26
:100600000E94580B7C018991082E000C990B0E94C6
:10061000580BE816F90661F380E0DF91CF911F9146
:100620000F91FF90EF90089581E0F7CF209107039D
:100630003091080380910103909102032817390734
:10064000F1F480910303909104036091FD02709195
:10065000FE020097D1F061157105A1F4232BC1F0C2
:10066000FC01808190E008C0232B91F0FB01808188
:1006700090E091958195910921E0892B09F020E086
:10068000822F08950E94690BF7CF6115710561F7FC
:1006900021E0F6CF0F931F93CF93DF93EC01888176
:1006A0009981009759F02A813B812617370730F04E
:1006B00081E0DF91CF911F910F9108958B016F5FC2
:1006C0007F4F0E949B0A009759F0998388831B8370
:1006D0000A832C813D81232B59F7FC011082E8CF3E
:1006E00080E0E7CFEF92FF920F931F93CF93DF93BA
:1006F000EC017B018A01BA010E944A0381110BC0FF
:10070000CE010E94D102CE01DF91CF911F910F91B6
:10071000FF90EF9008951D830C83B7018881998124
:100720000E94720BF0CF4F925F926F927F928F92E6
:100730009F92AF92BF92CF92DF92EF92FF920F9370
:100740001F93CF93DF93CDB7DEB72E970FB6F894F4
:10075000DEBF0FBECDBFADB6BEB6880F991F2DB799
:100760003EB7281B390B0FB6F8943EBF0FBE2DBF06
:100770000DB71EB70F5F1F4F6801C80ED91E780155
:1007800036E0432E512C612C712C0E944908A301A4
:1007900092010E94D6086F5F7F4F8F4F9F4FF701E6
:1007A000619371937F01CE16DF0679F750E040E048
:1007B0006EE171E08DEF92E00E9472039E012F5F67
:1007C0003F4F6901F801819091908F0190925B02F7
:1007D00080925A02F1E08F16910409F07DC061E029
:1007E00086E00E94D60168EE73E080E090E00E940F
:1007F000470260E086E00E94D60168EE73E080E088
:1008000090E00E9447021A8619861C861B861E8667
:100810001D866091FD027091FE026115710541F027
:100820004091010350910203CE0109960E94720388
:100830004AE0B601C4010E94A108F601019000201F
:10084000E9F73197EC19FD09B9F08D849E848E0E7D
:100850009F1EB401CE0109960E944A03882309F421
:1008600091C029853A858D859E85B601820F931F9B
:100870000E94720B9E868D8669857A856115710549
:1008800009F485C04D855E858DEF92E00E9472036C
:10089000CE0109960E94E3020E151F0509F092CFC2
:1008A0000FB6F894BEBE0FBEADBE2E960FB6F8942E
:1008B000DEBF0FBECDBFDF91CF911F910F91FF9093
:1008C000EF90DF90CF90BF90AF909F908F907F90F0
:1008D0006F905F904F90089522E08216910469F422
:1008E00061E087E00E94D60168EE73E080E090E06E
:1008F0000E94470260E087E07ECF33E083169104D8
:1009000069F461E088E00E94D60168EE73E080E05F
:1009100090E00E94470260E088E06DCF84E0881696
:10092000910469F461E089E00E94D60168EE73E009
:1009300080E090E00E94470260E089E05CCF95E0B3
:100940008916910469F461E08AE00E94D60168EE9C
:1009500073E080E090E00E94470260E08AE04BCFC5
:10096000E6E08E16910409F04ECF61E08BE00E9424
:10097000D60168EE73E080E090E00E94470260E0FC
:100980008BE039CFCE0109960E94D10275CF8DEF51
:1009900092E00E94D1027CCFFC011182108213826E
:1009A000128215821482FB0101900020E9F7319731
:1009B000AF01461B570B0C9472030F931F93CF93F9
:1009C000DF93CDB7DEB728970FB6F894DEBF0FBE22
:1009D000CDBF8FE191E00E94B40280E692E00E94D8
:1009E0002701892BD1F380E692E00E942701892B11
:1009F00009F44FC01A8219821C821B821E821D823A
:100A000050E040E06EE171E0CE0101960E94720379
:100A10000E94D90097FD1BC08F8318860D811E810F
:100A20000F5F1F4FB801CE0101960E944A03882331
:100A300079F329813A818D819E81BE01695F7F4F63
:100A4000820F931F0E94720B1E830D83E1CF809152
:100A5000030390910403009749F169817A8161153C
:100A6000710511F140910503509106032D813E81DE
:100A700042175307C8F00E94720B8D819E8190939C
:100A80000803809307031E821D82CE0101960E94F7
:100A9000E30228960FB6F894DEBF0FBECDBFDF91FC
:100AA000CF911F910F9108950E94120A89819A8116
:100AB00090930403809303038B819C81909306039E
:100AC000809305038D819E81909308038093070393
:100AD0001A8219821C821B82D6CF1F920F920FB6E8
:100AE0000F9211242F933F934F935F936F937F93B4
:100AF0008F939F93AF93BF93EF93FF9380E692E022
:100B00000E944701FF91EF91BF91AF919F918F910B
:100B10007F916F915F914F913F912F910F900FBEF9
:100B20000F901F9018951F920F920FB60F921124DD
:100B30002F938F939F93EF93FF93E0917002F09127
:100B400071028081E0917602F091770282FD1BC0F4
:100B50009081809179028F5F8F7320917A02821742
:100B600041F0E0917902F0E0E05AFD4F958F8093DB
:100B70007902FF91EF919F918F912F910F900FBE6E
:100B80000F901F9018958081F4CF1F920F920FB68F
:100B90000F9211242F933F938F939F93AF93BF9303
:100BA00080915C0290915D02A0915E02B0915F0223
:100BB0003091540223E0230F2D3758F50196A11DE3
:100BC000B11D2093540280935C0290935D02A09328
:100BD0005E02B0935F028091550290915602A091FF
:100BE0005702B09158020196A11DB11D8093550284
:100BF00090935602A0935702B0935802BF91AF91C1
:100C00009F918F913F912F910F900FBE0F901F904A
:100C1000189526E8230F0296A11DB11DD2CFE0E65C
:100C2000F2E01382128288EE93E0A0E0B0E08483C9
:100C30009583A683B7838EE091E09183808385ECD2
:100C400090E09587848784EC90E09787868780EC96
:100C500090E0918B808B81EC90E0938B828B82EC87
:100C600090E0958B848B86EC90E0978B868B118E31
:100C7000128E138E148E6EE171E083E093E00E9479
:100C8000CC046EE171E08DEF92E00C94CC04CF9334
:100C9000DF9300D000D000D0CDB7DEB7789484B514
:100CA000826084BD84B5816084BD85B5826085BD68
:100CB00085B5816085BD80916E00816080936E00F6
:100CC00010928100809181008260809381008091E8
:100CD0008100816080938100809180008160809399
:100CE00080008091B10084608093B1008091B00059
:100CF00081608093B00080917A00846080937A0054
:100D000080917A00826080937A0080917A0081607D
:100D100080937A0080917A00806880937A001092A4
:100D2000C100E0917002F091710282E08083E09155
:100D30006C02F0916D021082E0916E02F0916F02F0
:100D40008FEC808310927802E0917402F09175022A
:100D500086E08083E0917202F0917302808180616D
:100D60008083E0917202F0917302808188608083B9
:100D7000E0917202F0917302808180688083E0913B
:100D80007202F091730280818F7D808326E030E0D3
:100D9000F901EC55FF4F4491F901E057FF4F849161
:100DA000882399F090E0880F991FFC01EA57FF4FC4
:100DB000A591B491FC01E458FF4F859194918FB7B0
:100DC000F894EC91E42BEC938FBF2F5F3F4F2C30C6
:100DD0003105F1F680E480937C0080917A00806494
:100DE00080937A0080917A0086FDFCCF8091780014
:100DF00060917900762F682F072E000C880B990BD5
:100E0000611571058105910511F00E94980880E037
:100E1000C82E80E0D82E14E093E0E92EBB24B394D2
:100E200025E0F22E32E0A32E80915902823009F49F
:100E3000A1C084F4882309F441C0813009F482C040
:100E4000C114D10489F30E943301882369F30E94FD
:100E50000000EACF843009F4BBC00CF4A1C0853097
:100E600079F78BE292E00E94B4020E94DD0464E60E
:100E700071E0CE0101960E94CC048091070390910D
:100E800008032D813E8100E08217930741F401E0C1
:100E9000892B29F0CE0101960E94EB02082FCE018A
:100EA00001960E94E302011131C01092590282E4BE
:100EB00092E00E94B40263E070E041C083E491E0FC
:100EC0000E94B4028EE491E00E94B4020E94DD040C
:100ED00064E671E0CE0101960E94CC048091070384
:100EE000909108032D813E8100E08217930741F421
:100EF00001E0892B29F0CE0101960E94EB02082F18
:100F0000CE0101960E94E302002369F0B0925902DB
:100F100086E691E00E94B40263E070E088EE93E020
:100F20000E947A028DCF1092590288E791E00E94C8
:100F3000B40284E991E00E94B40265E070E08CE2C2
:100F400091E0EECF8AEA91E00E94B40283E090E063
:100F50000E9493030E94DD040E941603882329F057
:100F6000A092590286EB91E0D5CF109359028FECF5
:100F700091E0E1CF80EE91E00E94B40285E090E044
:100F80000E9493030E94DD040E941603882319F037
:100F9000E0925902E7CF109359028CEE91E0CBCF4B
:100FA00082EF91E00E94B40287E090E00E949303F8
:100FB0000E94DD040E941603882329F0F092590252
:100FC0008EEF91E0A7CF1093590285E192E0B3CF65
:100FD00081E292E00E94B40265E070E084E690E075
:100FE0000E947A02F09259022BCF8DEF92E00E947C
:100FF000E30283E093E00C94E3028F929F92AF921E
:10100000BF92CF92DF92EF92FF92CF93DF93EC01EA
:10101000688179818A819B816115710581059105BE
:1010200021F464E279ED8BE597E02DE133EF41E0C7
:1010300050E00E94D60849015A019B01AC01A7EA81
:10104000B1E40E94F5086B017C01ACEEB4EFA501A0
:1010500094010E940309C60ED71EE81EF91EF7FE72
:1010600006C081E0C81AD108E10880E8F80AC88201
:10107000D982EA82FB82C701B6019F77DF91CF91C7
:10108000FF90EF90DF90CF90BF90AF909F908F90A8
:1010900008958F929F92AF92BF92CF92DF92EF927C
:1010A000FF92609100017091010180910201909185
:1010B0000301611571058105910521F464E279ED63
:1010C0008BE597E02DE133EF41E050E00E94D60838
:1010D00049015A019B01AC01A7EAB1E40E94F5085D
:1010E0006B017C01ACEEB4EFA50194010E940309F1
:1010F000C60ED71EE81EF91EF7FE06C081E0C81A0C
:10110000D108E10880E8F80AC0920001D0920101FC
:10111000E0920201F0920301C701B6019F77FF90B0
:10112000EF90DF90CF90BF90AF909F908F900895F9
:101130006093000170930101809302019093030179
:101140000895BB274A3031F4992322F4BDE29095EB
:1011500081959F4F0C94AD08BB27FB015527AA270B
:10116000880F991FAA1FA41710F0A41B8395505134
:10117000B9F7A05DAA3308F0A95DA193009779F7AC
:10118000B111B1931192CB010C94C608DC01FC01A2
:10119000672F71917723E1F7329704C07C916D93AB
:1011A00070836291AE17BF07C8F30895052E97FBB1
:1011B0001EF400940E94ED0857FD07D00E943F09DD
:1011C00007FC03D04EF40C94ED08509540953095F3
:1011D00021953F4F4F4F5F4F0895909580957095A3
:1011E00061957F4F8F4F9F4F08950E946109A59F82
:1011F000900DB49F900DA49F800D911D1124089512
:10120000B7FF0C94F5080E94F508821B930B089514
:101210002F923F924F925F926F927F928F929F9206
:10122000AF92BF92CF92DF92EF92FF920F931F93F4
:10123000CF93DF93CDB7DEB7CA1BDB0B0FB6F894A5
:10124000DEBF0FBECDBF09942A88398848885F84E5
:101250006E847D848C849B84AA84B984C884DF8056
:10126000EE80FD800C811B81AA81B981CE0FD11D3A
:101270000FB6F894DEBF0FBECDBFED010895A1E219
:101280001A2EAA1BBB1BFD010DC0AA1FBB1FEE1F00
:10129000FF1FA217B307E407F50720F0A21BB30B4B
:1012A000E40BF50B661F771F881F991F1A9469F7C7
:1012B00060957095809590959B01AC01BD01CF0123
:1012C0000895A29FB001B39FC001A39F700D811D1F
:1012D0001124911DB29F700D811D1124911D08953F
:1012E000EE0FFF1F0590F491E02D09940F931F93CB
:1012F000CF93DF938230910510F482E090E0E0918B
:101300000B03F0910C0330E020E0B0E0A0E0309758
:1013100099F42115310509F44AC0281B390B2430F2
:101320003105D8F58A819B816115710589F1FB0131
:1013300093838283FE0111C0408151810281138118
:1013400048175907E0F04817590799F4109761F0CA
:1013500012960C93129713961C933296CF01DF913D
:10136000CF911F910F91089500930B0310930C03DD
:10137000F4CF2115310551F04217530738F0A90178
:10138000DB019A01BD01DF01F801C1CFEF01F9CF07
:1013900090930C0380930B03CDCFFE01E20FF31F5C
:1013A000819391932250310939832883D7CF20919B
:1013B000090330910A03232B41F420910601309157
:1013C000070130930A03209309032091040130910F
:1013D00005012115310541F42DB73EB740910801B3
:1013E00050910901241B350BE0910903F0910A0388
:1013F000E217F307A0F42E1B3F0B2817390778F0EC
:10140000AC014E5F5F4F2417350748F04E0F5F1F4A
:1014100050930A0340930903819391939FCFF0E087
:10142000E0E09CCFCF93DF930097E9F0FC01329787
:1014300013821282A0910B03B0910C03ED0130E0F6
:1014400020E01097A1F420813181820F931F209119
:10145000090330910A032817390709F061C0F09396
:101460000A03E0930903DF91CF910895EA01CE17B3
:10147000DF07E8F54A815B819E0141155105B1F70F
:10148000E901FB83EA8349915991C40FD51FEC17F9
:10149000FD0761F4808191810296840F951FE90117
:1014A00099838883828193819B838A83F0E0E0E043
:1014B00012968D919C9113970097B9F52D913C91BF
:1014C0001197CD010296820F931F2091090330914D
:1014D0000A032817390739F6309751F510920C0393
:1014E00010920B03B0930A03A0930903BCCFD383DC
:1014F000C28340815181840F951FC817D90761F4B9
:101500004E5F5F4F88819981480F591F51834083F7
:101510008A819B81938382832115310509F0B0CFA5
:10152000F0930C03E0930B039ECFFD01DC01C0CFD1
:1015300013821282D7CFB0E0A0E0E1EAFAE00C9487
:101540000A098C01009751F4CB010E9476098C01A5
:10155000C801CDB7DEB7E0E10C942609FC01E60F27
:10156000F71F9C0122503109E217F30708F49DC0D0
:10157000D901CD91DC911197C617D70798F0C530E6
:10158000D10530F3CE0104978617970708F3C61BE1
:10159000D70B2297C193D1936D937C93CF010E9477
:1015A000120AD6CF5B01AC1ABD0A4C018C0E9D1EEF
:1015B000A0910B03B0910C03512C412CF12CE12C88
:1015C000109731F58091090390910A0388159905C8
:1015D00009F05CC04616570608F058C08091040117
:1015E00090910501009741F48DB79EB74091080195
:1015F00050910901841B950BE817F90708F055C0B5
:10160000F0930A03E0930903F90171836083A0CF8B
:101610008D919C91119712966C90129713967C90D5
:101620001397A815B90559F56C0142E0C40ED11CF9
:10163000CA14DB0420F1AC014A195B09DA011296E5
:10164000159780F06282738251834083D9016D9334
:101650007C93E114F10471F0D7011396FC93EE939F
:10166000129776CF22968C0F9D1FF901918380836C
:10167000F301EFCFF0930C03E0930B0369CF48160F
:10168000590608F42C017D01D3019ACFCB010E94A9
:1016900076097C01009749F0AE01B8010E94600B09
:1016A000C8010E94120A870153CF10E000E050CF1A
:1016B0009111089581548A5108F4805E855A0895E5
:1016C000FB01DC0102C001900D9241505040D8F75F
:1016D0000895FB01DC018D91019080190110D9F36F
:1016E000990B0895FB01DC0101900D920020E1F7B8
:1016F000089510E0CDE5D0E004C0FE010E9470091D
:101700002196CE35D107C9F7F894FFCF010000002C
:1017100000000D0380000000000069018900B60090
:10172000B6012701C50019010D0A002A20496E7370
:101730006972612073756120726573706F73746173
:101740002C20706572206661766F7265202A002AEF
:1017500020494E4943494F202A00436F6D6563611C
:10176000723F204469676974652028732F6E2900D1
:1017700073004A6F676F20636F6D6563616E646F9E
:101780002E2E2E004E616F2074656D20736169648A
:101790006120646F206C6F6F702E2042727568003C
:1017A000766F6C74616E646F20616F20696E69631F
:1017B000696F2E2E2E002A204E6976656C2031200E
:1017C0002A005061726162656E73212070726F78B9
:1017D000696D6F206E6976656C2E00526573706F4F
:1017E0007374612045727261646121002A204E6920
:1017F00076656C2032202A004572726F21002A2003
:101800004E6976656C2033202A00506172616265F2
:101810006E732120766F63652076656E6365752E25
:10182000004572726F6F6F6F6F2121210047616DEC
:1018300065204F766572006A6F676172206E6F7601
:10184000616D656E74653F2028732F6E29004A6FA5
:10185000676F206E616F20696E69636961646F00F4
:107E0000112484B714BE81FFF0D085E080938100F7
:107E100082E08093C00088E18093C10086E0809377
:107E2000C20080E18093C4008EE0C9D0259A86E02C
:107E300020E33CEF91E0309385002093840096BBD3
:107E4000B09BFECF1D9AA8958150A9F7CC24DD24C4
:107E500088248394B5E0AB2EA1E19A2EF3E0BF2EE7
:107E6000A2D0813461F49FD0082FAFD0023811F036
:107E7000013811F484E001C083E08DD089C08234E0
:107E800011F484E103C0853419F485E0A6D080C0E4
:107E9000853579F488D0E82EFF2485D0082F10E0AE
:107EA000102F00270E291F29000F111F8ED06801E7
:107EB0006FC0863521F484E090D080E0DECF843638
:107EC00009F040C070D06FD0082F6DD080E0C81688
:107ED00080E7D80618F4F601B7BEE895C0E0D1E017
:107EE00062D089930C17E1F7F0E0CF16F0E7DF06D8
:107EF00018F0F601B7BEE89568D007B600FCFDCFD4
:107F0000A601A0E0B1E02C9130E011968C91119780
:107F100090E0982F8827822B932B1296FA010C0160
:107F200087BEE89511244E5F5F4FF1E0A038BF0790
:107F300051F7F601A7BEE89507B600FCFDCF97BE46
:107F4000E89526C08437B1F42ED02DD0F82E2BD052
:107F50003CD0F601EF2C8F010F5F1F4F84911BD097
:107F6000EA94F801C1F70894C11CD11CFA94CF0C13
:107F7000D11C0EC0853739F428D08EE10CD085E9AC
:107F80000AD08FE07ACF813511F488E018D01DD067
:107F900080E101D065CF982F8091C00085FFFCCF94
:107FA0009093C60008958091C00087FFFCCF809118
:107FB000C00084FD01C0A8958091C6000895E0E648
:107FC000F0E098E1908380830895EDDF803219F02E
:107FD00088E0F5DFFFCF84E1DECF1F93182FE3DFCA
:107FE0001150E9F7F2DF1F91089580E0E8DFEE27F6
:047FF000FF270994CA
:027FFE00040479
:00000001FF
