:020000040000FA
:100000000C9462000C948A000C948A000C948A0070
:100010000C948A000C948A000C948A000C948A0038
:100020000C948A000C948A000C948A000C948A0028
:100030000C948A000C948A000C948A000C948A0018
:100040000C949D030C948A000C946B030C94450350
:100050000C948A000C948A000C948A000C948A00F8
:100060000C948A000C948A000000000023002600F3
:10007000290000000000240027002A0000000000E2
:10008000250028002B0004040404040404040202D4
:100090000202020203030303030301020408102007
:1000A0004080010204081020010204081020000012
:1000B0000008000201000003040700000000000027
:1000C00000002C0411241FBECFEFD8E0DEBFCDBF4F
:1000D00011E0A0E0B1E0ECECFBE002C005900D9275
:1000E000AC37B107D9F722E0ACE7B1E001C01D920F
:1000F000AA32B207E1F710E0C2E6D0E004C02197CF
:10010000FE010E94DE05C136D107C9F70E947504C1
:100110000C94E4050C940000AF92BF92CF92DF9252
:10012000EF92FF920F931F93CF93DF936C017B01AC
:100130008B01040F151FEB015E01AE18BF08C0173D
:10014000D10759F06991D601ED91FC910190F081B0
:10015000E02DC6010995892B79F7C501DF91CF9173
:100160001F910F91FF90EF90DF90CF90BF90AF90D5
:100170000895FC01538D448D252F30E0842F90E0AD
:10018000821B930B541710F0CF9608950197089592
:10019000FC01918D828D981761F0A28DAE0FBF2F5B
:1001A000B11D5D968C91928D9F5F9F73928F90E0B1
:1001B00008958FEF9FEF0895FC01918D828D981720
:1001C00031F0828DE80FF11D858D90E008958FEF5D
:1001D0009FEF0895FC01918D228D892F90E0805C26
:1001E0009F4F821B91098F739927089589E891E0A9
:1001F0000E94EA0021E0892B09F420E0822F089573
:1002000080E090E0892B29F00E94F60081110C9487
:1002100000000895FC01A48DA80FB92FB11DA35AA9
:10022000BF4F2C91848D90E001968F739927848F16
:10023000A689B7892C93A089B1898C918370806439
:100240008C93938D848D981306C00288F389E02DDA
:1002500080818F7D80830895EF92FF920F931F938B
:10026000CF93DF93EC0181E0888F9B8D8C8D981369
:100270001AC0E889F989808185FF15C09FB7F89475
:10028000EE89FF896083E889F989808183708064C1
:1002900080839FBF81E090E0DF91CF911F910F910C
:1002A000FF90EF900895F62E0B8D10E00F5F1F4F1B
:1002B0000F731127E02E8C8D8E110CC00FB607FC2A
:1002C000FACFE889F989808185FFF5CFCE010E94B8
:1002D0000A01F1CFEB8DEC0FFD2FF11DE35AFF4F1B
:1002E000F0829FB7F8940B8FEA89FB898081806246
:1002F000CFCFCF93DF93EC01888D8823B9F0AA8903
:10030000BB89E889F9898C9185FD03C0808186FDD0
:100310000DC00FB607FCF7CF8C9185FFF2CF80811F
:1003200085FFEDCFCE010E940A01E9CFDF91CF9189
:10033000089590E0FC01E255FF4F2491FC01E65640
:10034000FF4F3491FC01EA57FF4FE491EE23C9F0CF
:10035000222339F0233001F1A8F4213019F12230A1
:1003600029F1F0E0EE0FFF1FE458FF4FA591B49183
:100370008FB7F894EC91611126C030953E233C93E1
:100380008FBF08952730A9F02830C9F0243049F7ED
:10039000809180008F7D03C0809180008F77809353
:1003A0008000DFCF84B58F7784BDDBCF84B58F7DB0
:1003B000FBCF8091B0008F778093B000D2CF809137
:1003C000B0008F7DF9CF3E2BDACFCF93DF9390E053
:1003D000FC01E656FF4F24918A579F4FFC01849100
:1003E0008823D1F090E0880F991FFC01EE58FF4F51
:1003F000A591B491FC01E458FF4FC591D4916111CE
:100400000EC09FB7F8948C91E22FE0958E238C93C9
:100410002881E223E8839FBFDF91CF9108958FB7B2
:10042000F894EC91E22BEC938FBFF6CF3FB7F894A2
:100430008091810190918201A0918301B09184010A
:1004400026B5A89B05C02F3F19F00196A11DB11D2F
:100450003FBFBA2FA92F982F8827BC01CD01620F6B
:10046000711D811D911D42E0660F771F881F991F26
:100470004A95D1F708958F929F92AF92BF92CF92F3
:10048000DF92EF92FF920E9416024B015C0184E61C
:10049000C82ED12CE12CF12C0E9416026819790982
:1004A0008A099B09683E734081059105A8F321E004
:1004B000C21AD108E108F10888EE880E83E0981E80
:1004C000A11CB11CC114D104E104F10429F7FF906F
:1004D000EF90DF90CF90BF90AF909F908F90089556
:1004E0000F931F93CF93C82F8B0161E00E94990156
:1004F00028EE33E0D8010E94D70524EB30E040E03D
:1005000050E00E94870528513C4F4F4F5F4F220F0C
:10051000331F220F331F25503109C9010197F1F70D
:1005200060E08C2F0E949901CF911F910F910C9444
:100530003B02FC0101900020E9F73197AF01481B15
:10054000590BBC0189E891E00C948C00CF93DF93A8
:100550000E949902EC0182E191E00E9499028C0FC5
:100560009D1FDF91CF910895CF92DF92EF92FF927E
:100570000F931F93CF93DF93CDB7DEB7A1970FB63D
:10058000F894DEBF0FBECDBF9C01990F440B550BF5
:1005900019A28E010F5D1F4F8AE0C82ED12CE12CCD
:1005A000F12CCA01B901A70196010E94A605605D60
:1005B000F80162938F01211531054105510589F735
:1005C0003097C9F0CF010E9499028C0182E191E03D
:1005D0000E949902800F911FA1960FB6F894DEBF7A
:1005E0000FBECDBFDF91CF911F910F91FF90EF9084
:1005F000DF90CF90089510E000E0E8CF0F931F93B5
:10060000CF93DF93EC0160E088810E94990183E041
:1006100090E00197F1F761E088810E94990183E2FF
:1006200090E00197F1F760E088810E94990189814B
:1006300090E0FC01E656FF4F6491FC01EA57FF4F42
:10064000E491F0E0EE0FFF1FE859FF4F8591949180
:1006500000E412E42FE030E0462F0E94E70361152A
:1006600071058105910529F06F5F7F4F8F4F9F4F77
:100670009F702BE330E040E050E00E94A605C901E6
:10068000DF91CF911F910F9108951F920F920FB696
:100690000F9211242F933F934F935F936F937F9308
:1006A0008F939F93AF93BF93EF93FF9389E891E06C
:1006B0000E940A01FF91EF91BF91AF919F918F919D
:1006C0007F916F915F914F913F912F910F900FBE4E
:1006D0000F901F9018951F920F920FB60F92112432
:1006E0002F938F939F93EF93FF93E0919901F09154
:1006F0009A018081E0919F01F091A00182FD1BC0D1
:1007000090818091A2018F5F8F732091A301821746
:1007100041F0E091A201F0E0E757FE4F958F809302
:10072000A201FF91EF919F918F912F910F900FBE9A
:100730000F901F9018958081F4CF1F920F920FB6E3
:100740000F9211242F933F938F939F93AF93BF9357
:1007500080917D0190917E01A0917F01B0918001F7
:1007600030917C0123E0230F2D3758F50196A11D10
:10077000B11D20937C0180937D0190937E01A09315
:100780007F01B09380018091810190918201A091BD
:100790008301B09184010196A11DB11D8093810157
:1007A00090938201A0938301B0938401BF91AF9194
:1007B0009F918F913F912F910F900FBE0F901F909F
:1007C000189526E8230F0296A11DB11DD2CFCF9216
:1007D000DF92EF92FF920F931F93E82FF92F05C03E
:1007E000015011092109310961F190819623941773
:1007F000B9F305C0015011092109310911F19081A6
:1008000096239413F7CFC12CD12CE12CF12C0AC0E4
:100810008FEFC81AD80AE80AF80A0C151D052E052C
:100820003F0579F080818623841791F36C2D7D2D0F
:100830008E2D9F2D1F910F91FF90EF90DF90CF9005
:10084000089560E070E080E090E01F910F91FF90CC
:10085000EF90DF90CF900895E9E8F1E013821282E3
:1008600088EE93E0A0E0B0E084839583A683B7830D
:1008700084E091E09183808385EC90E09587848784
:1008800084EC90E09787868780EC90E0918B808B5A
:1008900081EC90E0938B828B82EC90E0958B848B43
:1008A00086EC90E0978B868B118E128E138E148EB1
:1008B00061E084E00E94E50160E085E00E94E501DE
:1008C000E8E2F2E084E0808385E0818361E087E014
:1008D0000E94E50160E086E00E94E501E6E2F2E0C8
:1008E00087E0808386E081830895789484B5826070
:1008F00084BD84B5816084BD85B5826085BD85B5C4
:10090000816085BD80916E00816080936E00109241
:1009100081008091810082608093810080918100BC
:10092000816080938100809180008160809380004D
:100930008091B10084608093B1008091B0008160AB
:100940008093B00080917A00846080937A008091D7
:100950007A00826080937A0080917A00816080932F
:100960007A0080917A00806880937A001092C100AA
:10097000E0919901F0919A0182E08083E0919501E4
:10098000F09196011082E0919701F09198018FEC1F
:1009900080831092A101E0919D01F0919E0186E07B
:1009A0008083E0919B01F0919C0180818061808334
:1009B000E0919B01F0919C01808188608083E091AF
:1009C0009B01F0919C01808180688083E0919B0174
:1009D000F0919C0180818F7D808361E089E00E949D
:1009E000E50161E08AE00E94E501C0E0D0E088E234
:1009F00092E00E94FE02909388018093870186E234
:100A000092E00E94FE02909386018093850170E03F
:100A100060E089E090E00E9470020E943B026AE57B
:100A200070E08AE090E00E947002809187019091CE
:100A300088014497B4F585E191E00E94A6020E94E6
:100A40003B026AE570E089E090E00E9470028AE56E
:100A500090E00E94B40280E291E00E94A6020E940F
:100A60003B0280918501909186014F97BCF170E027
:100A700060E08AE090E00E94700290E080E00E94D6
:100A8000B40289E291E00E94A6020E943B026AE55C
:100A900070E08AE090E00E9470028BE391E00E9497
:100AA000A6028091870190918801449764F070E0DC
:100AB00060E089E090E00E94700283E791E00E948C
:100AC000A6020E943B02209709F491CF0E94F600F3
:100AD000882309F48CCF0E94000089CF64EB70E07A
:100AE0008AE090E00E94700284EB90E00E94B402E1
:100AF0008EE491E00E94A6020E943B026AE570E04B
:100B00008AE090E00E94700280E691E0C8CF052E56
:100B100097FB1EF400940E949E0557FD07D00E948B
:100B2000A60507FC03D04EF40C949E055095409505
:100B3000309521953F4F4F4F5F4F08959095809589
:100B4000709561957F4F8F4F9F4F0895A1E21A2EA8
:100B5000AA1BBB1BFD010DC0AA1FBB1FEE1FFF1F61
:100B6000A217B307E407F50720F0A21BB30BE40BB1
:100B7000F50B661F771F881F991F1A9469F76095F8
:100B80007095809590959B01AC01BD01CF010895B2
:100B9000A29FB001B39FC001A39F700D811D1124BE
:100BA000911DB29F700D811D1124911D08950E9409
:100BB000C805B7FF0895821B930B0895EE0FFF1F22
:100BC0000590F491E02D0994F894FFCF0000000007
:100BD0002C018C00B9007901EA00C800DC000D0A84
:100BE0000054656D207869636172610041626572CD
:100BF000746F20380043616665206C6F6E676F20EC
:100C00002834306D6C290043616665206C6F6E6717
:100C10006F2C2070726F6E746F0043616665206385
:100C20007572746F202832306D6C290043616665DF
:100C300020637572746F2C2070726F6E746F004633
:080C400065636861646F000048
:107E0000112484B714BE81FFF0D085E080938100F7
:107E100082E08093C00088E18093C10086E0809377
:107E2000C20080E18093C4008EE0C9D0259A86E02C
:107E300020E33CEF91E0309385002093840096BBD3
:107E4000B09BFECF1D9AA8958150A9F7CC24DD24C4
:107E500088248394B5E0AB2EA1E19A2EF3E0BF2EE7
:107E6000A2D0813461F49FD0082FAFD0023811F036
:107E7000013811F484E001C083E08DD089C08234E0
:107E800011F484E103C0853419F485E0A6D080C0E4
:107E9000853579F488D0E82EFF2485D0082F10E0AE
:107EA000102F00270E291F29000F111F8ED06801E7
:107EB0006FC0863521F484E090D080E0DECF843638
:107EC00009F040C070D06FD0082F6DD080E0C81688
:107ED00080E7D80618F4F601B7BEE895C0E0D1E017
:107EE00062D089930C17E1F7F0E0CF16F0E7DF06D8
:107EF00018F0F601B7BEE89568D007B600FCFDCFD4
:107F0000A601A0E0B1E02C9130E011968C91119780
:107F100090E0982F8827822B932B1296FA010C0160
:107F200087BEE89511244E5F5F4FF1E0A038BF0790
:107F300051F7F601A7BEE89507B600FCFDCF97BE46
:107F4000E89526C08437B1F42ED02DD0F82E2BD052
:107F50003CD0F601EF2C8F010F5F1F4F84911BD097
:107F6000EA94F801C1F70894C11CD11CFA94CF0C13
:107F7000D11C0EC0853739F428D08EE10CD085E9AC
:107F80000AD08FE07ACF813511F488E018D01DD067
:107F900080E101D065CF982F8091C00085FFFCCF94
:107FA0009093C60008958091C00087FFFCCF809118
:107FB000C00084FD01C0A8958091C6000895E0E648
:107FC000F0E098E1908380830895EDDF803219F02E
:107FD00088E0F5DFFFCF84E1DECF1F93182FE3DFCA
:107FE0001150E9F7F2DF1F91089580E0E8DFEE27F6
:047FF000FF270994CA
:027FFE00040479
:00000001FF
